:100000000C9435000C945D000C945D000C945D0024
:100010000C945D000C945D000C945D000C945D00EC
:100020000C945D000C945D000C945D000C945D00DC
:100030000C945D000C9442020C945D000C945D00E5
:100040000C945D000C945D000C945D000C945D00BC
:100050000C945D000C945D000C945D000C945D00AC
:100060000C945D000C945D00490411241FBECFEF79
:10007000D8E0DEBFCDBF11E0A0E0B1E0E0EDFDE0F3
:1000800002C005900D92A030B107D9F721E0A0E0A1
:10009000B1E001C01D92A034B207E1F710E0C5E362
:1000A000D0E004C02197FE010E94AB06C433D10703
:1000B000C9F70E9467030C94E6060C940000CF93E6
:1000C000DF9300D0CDB7DEB77A83698389819A81C7
:1000D0009C01215031093A832983892BB9F70F906C
:1000E0000F90DF91CF9108955A982BB12F712BB9B2
:1000F0004BB150E2659F90011124242B2BB96695DA
:100100006695669525B1207E25B965B95C9A6FEF35
:1001100070E00E945F005C9808955A9A2BB12F718D
:100120002BB94BB150E2659F90011124242B2BB9C0
:1001300066956695669525B1207E25B965B95C9A68
:100140006FEF70E00E945F005C985A980895CF931B
:10015000DF93EC018AB18C618AB98BB1837E8BB954
:100160008AB1806E8AB98BB18F718BB984B18F617E
:1001700084B985B1807E85B985B1876085B95C9A7F
:100180006FEF7FEFCE010E945F005C9885B1897FA1
:1001900085B98BB1806C8BB95C9A6FEF7FE0CE0133
:1001A0000E945F005C985C9A6FEF7FE0CE010E9436
:1001B0005F005C988BB18F738BB9289861E0CE019A
:1001C0000E94740062E0CE010E94740066E0CE01DD
:1001D0000E9474006FE0CE010E94740064E1CE01C1
:1001E0000E94740062E0CE010E947400DF91CF9102
:1001F0000895BF92CF92DF92EF92FF920F931F93D9
:10020000CF93DF937C018B01D4E10F2EF4E1BF2E5D
:10021000F02D6801F80180818A3071F48B2D8D1BDF
:10022000843150F4DD2391F0C0E060E2C7010E9408
:100230008D00CF5FDC13F9CF0F5F1F4FF601608198
:10024000C7010E948D00D15021F709C00F5F1F4FD9
:10025000F6016081C7010E948D00D150DACFDF9195
:10026000CF911F910F91FF90EF90DF90CF90BF90B3
:10027000089560E80E947400089568EA0E9474007E
:1002800008953898409808950E94410108954F922A
:100290005F926F927F928F929F92AF92BF92CF9216
:1002A000DF92EF92FF92CF93DF9300D000D000D087
:1002B000CDB7DEB79E838D83FC0124A135A146A175
:1002C00057A160A571A582A593A50E9474046B0136
:1002D0007C01ED81FE8160837183828393838488B6
:1002E0009588A688B788A50194010E943E06ED81F5
:1002F000FE8124853585468557850E9475042B012E
:100300003C01ED81FE81648775878687978724810C
:10031000358146815781C701B6010E947404A50149
:1003200094010E94E6044B015C01ED81FE8160872F
:10033000718782879387208D318D428D538DC701C0
:10034000B6010E943E0669837A838B839C83ED818C
:10035000FE81248D358D468D578DC301B2010E94DB
:100360003E069B01AC0169817A818B819C810E9450
:1003700075042B013C01ED81FE8120A131A142A138
:1003800053A1C501B4010E943E069B01AC01C3010B
:10039000B2010E947504ED81FE81608B718B828BAE
:1003A000938BC482D582E682F78226960FB6F894A4
:1003B000DEBF0FBECDBFDF91CF91FF90EF90DF90FA
:1003C000CF90BF90AF909F908F907F906F905F90F5
:1003D0004F900895FC0144A355A366A377A3089505
:1003E000FC0160897189828993890895CF93DF9395
:1003F00000D000D0CDB7DEB769837A838B839C832E
:1004000089819A81AB81BC81AC01BD014150510908
:100410006109710949835A836B837C83892B8A2BF9
:100420008B2B71F70F900F900F900F90DF91CF9162
:100430000895806480937C00EAE7F0E08081806426
:100440008083808186FDFDCF2091780080917900A6
:1004500090E0982F8827820F911D0895FC019C0140
:1004600021503F4FDF01819190ED980F9C3030F08B
:100470008D52823018F08AE08C930895E217F307CA
:1004800089F708951F920F920FB60F9211242F93A0
:100490003F934F935F936F937F938F939F93AF930C
:1004A000BF93CF93DF93EF93FF9381E0809302019B
:1004B000809113018111E6C03A9A429881E00E942E
:1004C00019028D3B9240D0F76FEF70E080E090E032
:1004D0000E94F60181E00E941902CBE0D1E09983ED
:1004E000888381E00E9419029B838A8381E00E94B5
:1004F00019029D838C8381E00E9419029F838E8361
:10050000688179818A819B814C815D812E813F81C7
:10051000860F971F840F951F820F931F90930A01D8
:10052000809309018091090190910A019695879520
:100530009695879590930A0180930901609109012E
:1005400070910A0180E090E00E948705AB01BC0138
:1005500084E191E00E94EA0184E191E00E94470178
:1005600084E191E00E94F00160930501709306011F
:100570008093070190930801609105017091060135
:10058000809107019091080120E030E04AE757E4AC
:100590000E943906181664F480E090E0AAE7B7E4F8
:1005A0008093050190930601A0930701B093080181
:1005B00060910501709106018091070190910801F9
:1005C00020E030E04AE757EC0E94E104882364F41D
:1005D00080E090E0AAE7B7EC8093050190930601D4
:1005E000A0930701B0930801609105017091060185
:1005F000809107019091080120E030E04AE757E43C
:100600000E94750420E030E040E05FE30E943E0677
:1006100020E030E0A9010E9475040E945805709303
:10062000010160930001809100019091010190937C
:1006300004018093030180910001909101018115D3
:100640009A4F30F080E09AEF90930101809300017F
:1006500080910001909101010B9730F48AE090E0C5
:10066000909301018093000180910001909101011C
:1006700090938500809384003A9A429881E0809319
:10068000130110C0209100013091010180E09AEF28
:10069000821B930B90938500809384003A9A429A30
:1006A0001092130110920201FF91EF91DF91CF910F
:1006B000BF91AF919F918F917F916F915F914F917A
:1006C0003F912F910F900FBE0F901F901895CF93D1
:1006D000DF93CDB7DEB7AB970FB6F894DEBF0FBE92
:1006E000CDBFCE0101960E94A70061E0CE01019628
:1006F0000E94740062E0CE0101960E9474006CE0DA
:10070000CE0101960E947400CE0102960E9444011F
:1007100087E880937A0083E08093810010928500BF
:100720001092840081E080936F008BA73A9A4298E0
:100730000BE011E08BA5882309F46BC03A9A42982C
:1007400081E00E9419028D3B9240D0F781E00E9427
:100750001902F8019183808381E00E941902F80157
:100760009383828381E00E941902F8019583848338
:1007700081E00E941902F80197838683608171816C
:10078000428153812481358186819781460F571F8D
:10079000240F351F820F931F90930A018093090144
:1007A0008091090190910A01969587959695879574
:1007B00090930A01809309018091090190910A01A7
:1007C0004AE0BE016D5F7F4F0E94B106CE010396E5
:1007D0000E942E02CE0101960E943901BE016D5F7A
:1007E0007F4FCE0101960E94F900809109019091FE
:1007F0000A01823C914020F03A9A42981BA69ACF77
:100800003A9A429A60E27EE480E090E00E94F6012B
:1008100091CF3A9A4298789480910201811132C026
:100820004AE0BE016D5F7F4F80910301909104010A
:100830000E94B106CE0103960E942E02CE010196BF
:100840000E943901BE016D5F7F4FCE0101960E946B
:10085000F9008091090190910A014AE0BE01695EA8
:100860007F4F0E94B106CE0147960E942E02CE0114
:1008700001960E943D01BE01695E7F4FCE01019647
:100880000E94F9006FEF7FEF80E090E00E94F60198
:10089000C3CFE4E1F1E08AEB99E4ACE8BEE3848BFA
:1008A000958BA68BB78B80E090E0AFEAB3E4808FA6
:1008B000918FA28FB38F80E090E8A9E0B4E4848F99
:1008C000958FA68FB78F80E090E0A8ECB2E480A36C
:1008D00091A3A2A3B3A380E090E8A2E2B4E480A72E
:1008E00091A7A2A7B3A708955058BB27AA270E9493
:1008F0008C040C94FF050E94F10538F00E94F80565
:1009000020F039F49F3F19F426F40C94EE050EF410
:10091000E095E7FB0C94E805E92F0E94100658F3D8
:10092000BA17620773078407950720F079F4A6F5D4
:100930000C9432060EF4E0950B2EBA2FA02D0B016D
:10094000B90190010C01CA01A0011124FF27591B14
:1009500099F0593F50F4503E68F11A16F040A22F1A
:10096000232F342F4427585FF3CF4695379527958B
:10097000A795F0405395C9F77EF41F16BA0B620B8A
:10098000730B840BBAF09150A1F0FF0FBB1F661FD1
:10099000771F881FC2F70EC0BA0F621F731F841F14
:1009A00048F4879577956795B795F7959E3F08F03A
:1009B000B0CF9395880F08F09927EE0F97958795FC
:1009C00008950E94C40508F481E008950E94FA0485
:1009D0000C94FF050E94F80558F00E94F10540F0C4
:1009E00029F45F3F29F00C94E80551110C9433066B
:1009F0000C94EE050E94100668F39923B1F3552379
:100A000091F3951B550BBB27AA2762177307840721
:100A100038F09F5F5F4F220F331F441FAA1FA9F3B7
:100A200035D00E2E3AF0E0E832D091505040E695A5
:100A3000001CCAF72BD0FE2F29D0660F771F881F06
:100A4000BB1F261737074807AB07B0E809F0BB0BF9
:100A5000802DBF01FF2793585F4F3AF09E3F51050D
:100A600078F00C94E8050C9433065F3FE4F3983E6D
:100A7000D4F3869577956795B795F7959F5FC9F7F6
:100A8000880F911D9695879597F90895E1E0660F77
:100A9000771F881FBB1F621773078407BA0720F0F0
:100AA000621B730B840BBA0BEE1F88F7E095089559
:100AB0000E94180688F09F5798F0B92F9927B751D0
:100AC000B0F0E1F0660F771F881F991F1AF0BA95F2
:100AD000C9F714C0B13091F00E943206B1E0089518
:100AE0000C943206672F782F8827B85F39F0B93F0A
:100AF000CCF3869577956795B395D9F73EF49095A5
:100B00008095709561957F4F8F4F9F4F0895E89422
:100B100009C097FB3EF490958095709561957F4F45
:100B20008F4F9F4F9923A9F0F92F96E9BB279395F3
:100B3000F695879577956795B795F111F8CFFAF403
:100B4000BB0F11F460FF1BC06F5F7F4F8F4F9F4F34
:100B500016C0882311F096E911C0772321F09EE892
:100B6000872F762F05C0662371F096E8862F70E0F8
:100B700060E02AF09A95660F771F881FDAF7880FD2
:100B80009695879597F90895990F0008550FAA0B28
:100B9000E0E8FEEF16161706E807F907C0F0121690
:100BA0001306E407F50798F0621B730B840B950B93
:100BB00039F40A2661F0232B242B252B21F40895E8
:100BC0000A2609F4A140A6958FEF811D811D089585
:100BD00097F99F6780E870E060E008959FEF80ECF0
:100BE000089500240A941616170618060906089593
:100BF00000240A9412161306140605060895092EF9
:100C00000394000C11F4882352F0BB0F40F4BF2B67
:100C100011F460FF04C06F5F7F4F8F4F9F4F0895A7
:100C200057FD9058440F551F59F05F3F71F047959D
:100C3000880F97FB991F61F09F3F79F08795089582
:100C4000121613061406551FF2CF4695F1DF08C0A1
:100C5000161617061806991FF1CF869571056105BE
:100C600008940895E894BB2766277727CB0197F966
:100C700008950E94C40508F48FEF08950E9451065C
:100C80000C94FF050E94F10538F00E94F80520F051
:100C9000952311F00C94E8050C94EE0511240C94A6
:100CA00033060E94100670F3959FC1F3950F50E034
:100CB000551F629FF001729FBB27F00DB11D639F0E
:100CC000AA27F00DB11DAA1F649F6627B00DA11DB4
:100CD000661F829F2227B00DA11D621F739FB00D5A
:100CE000A11D621F839FA00D611D221F749F3327CA
:100CF000A00D611D231F849F600D211D822F762F63
:100D00006A2F11249F5750409AF0F1F088234AF03F
:100D1000EE0FFF1FBB1F661F771F881F91505040AB
:100D2000A9F79E3F510580F00C94E8050C9433061A
:100D30005F3FE4F3983ED4F3869577956795B79532
:100D4000F795E7959F5FC1F7FE2B880F911D96954C
:100D5000879597F90895EE0FFF1F0590F491E02D08
:100D60000994BB274A3031F4992322F4BDE29095CF
:100D700081959F4F0C94BD06BB27FB015527AA27E1
:100D8000880F991FAA1FA41710F0A41B8395505118
:100D9000B9F7A05DAA3308F0A95DA193009779F790
:100DA000B111B1931192CB010C94D606DC01FC0178
:100DB000672F71917723E1F7329704C07C916D938F
:100DC00070836291AE17BF07C8F30895F894FFCF00
:00000001FF
