S01100004C75746F776E6963612E737265635D
S11300000C9435000C9452000C9452000C94520041
S11300100C9452000C9452000C9452000C94520014
S11300200C9452000C9452000C9452000C94520004
S11300300C9452000C9452000C9452000C945200F4
S11300400C9452000C9452000C9452000C945200E4
S11300500C9452000C9452000C9452000C945200D4
S11300600C9452000C945200330311241FBECFEFA2
S1130070D8E0DEBFCDBF21E0A0E0B1E001C01D9219
S1130080AC32B207E1F710E0C5E3D0E004C0219739
S1130090FE010E946E05C433D107C9F70E943702DE
S11300A00C94A9050C940000CF93DF9300D0CDB736
S11300B0DEB77A83698389819A819C012150310951
S11300C03A832983892BB9F70F900F90DF91CF9151
S11300D008955A982BB12F712BB94BB150E2659FFB
S11300E090011124242B2BB966956695669525B14C
S11300F0207E25B965B95C9A6FEF70E00E945400C8
S11301005C9808955A9A2BB12F712BB94BB150E2D8
S1130110659F90011124242B2BB9669566956695ED
S113012025B1207E25B965B95C9A6FEF70E00E9415
S113013054005C985A980895CF93DF93EC018AB1E8
S11301408C618AB98BB1837E8BB98AB1806E8AB98E
S11301508BB18F718BB984B18F6184B985B1807E85
S113016085B985B1876085B95C9A6FEF7FEFCE0161
S11301700E9454005C9885B1897F85B98BB1806CED
S11301808BB95C9A6FEF7FE0CE010E9454005C98BB
S11301905C9A6FEF7FE0CE010E9454005C988BB1B3
S11301A08F738BB9289861E0CE010E94690062E0E8
S11301B0CE010E94690066E0CE010E9469006FE0F2
S11301C0CE010E94690064E1CE010E94690062E0F0
S11301D0CE010E946900DF91CF910895BF92CF9222
S11301E0DF92EF92FF920F931F93CF93DF937C01E3
S11301F08B01D4E10F2EF4E1BF2EF02D6801F8013C
S113020080818A3071F48B2D8D1B843150F4DD2371
S113021091F0C0E060E2C7010E948200CF5FDC136E
S1130220F9CF0F5F1F4FF6016081C7010E94820062
S1130230D15021F709C00F5F1F4FF6016081C7013C
S11302400E948200D150DACFDF91CF911F910F919C
S1130250FF90EF90DF90CF90BF90089560E80E94E8
S11302606900089568EA0E94690008954F925F92B8
S11302706F927F928F929F92AF92BF92CF92DF92B2
S1130280EF92FF92CF93DF9300D000D000D0CDB790
S1130290DEB79E838D83FC0124A135A146A157A11D
S11302A060A571A582A593A50E945E036B017C01E4
S11302B0ED81FE8160837183828393838488958832
S11302C0A688B788A50194010E940105ED81FE81ED
S11302D024853585468557850E945F032B013C01A3
S11302E0ED81FE81648775878687978724813581B0
S11302F046815781C701B6010E945E03A50194019E
S11303000E94CB034B015C01ED81FE816087718704
S113031082879387208D318D428D538DC701B6011D
S11303200E94010569837A838B839C83ED81FE811E
S1130330248D358D468D578DC301B2010E94010570
S11303409B01AC0169817A818B819C810E945F034E
S11303502B013C01ED81FE8120A131A142A153A1D9
S1130360C501B4010E9401059B01AC01C301B201A6
S11303700E945F03ED81FE81608B718B828B938B76
S1130380C482D582E682F78226960FB6F894DEBF41
S11303900FBECDBFDF91CF91FF90EF90DF90CF9054
S11303A0BF90AF909F908F907F906F905F904F9091
S11303B00895FC0140A751A762A773A70895FC0103
S11303C044A355A366A377A30895FC0160897189AA
S11303D0828993890895CF93DF9300D000D0CDB75D
S11303E0DEB769837A838B839C8389819A81AB810D
S11303F0BC81AC01BD0141505109610971094983B6
S11304005A836B837C83892B8A2B8B2B71F70F90F8
S11304100F900F900F90DF91CF9108958064809397
S11304207C00EAE7F0E0808180648083808186FD3F
S1130430FDCF209178008091790090E0982F882753
S1130440820F911D0895FC019C0121503F4FDF0153
S1130450819190ED980F9C3030F08D52823018F0DD
S11304608AE08C930895E217F30789F70895CF93F0
S1130470DF93CDB7DEB7E5970FB6F894DEBF0FBEB6
S1130480CDBFCE0101960E949C0061E0CE01019691
S11304900E94690062E0CE0101960E9469006CE04E
S11304A0CE0101960E94690087E880937A0040E0BB
S11304B050E06FE274E480E091E00E94D90110E022
S11304C0A12CB12C0F2EF0E24F2EFEE45F2E612CF6
S11304D0712CF02D00EE0F2EF1EB9F2EF02D8824C1
S11304E08A9433243A943A9A429881E00E940E0204
S11304F08D3B9240D0F781E00E940E02E12FF0E0A4
S1130500EE0FFF1F21E030E02C0F3D1FE20FF31F21
S113051092A781A71F5F153098F0AAA4BBA48CA54D
S11305209DA5A80EB91E8EA59FA5A80EB91E88A9C3
S113053099A9A80EB91EB694A794B694A79410E0EE
S1130540B50180E090E00E9473046AAB7BAB8CAB96
S11305509DABAB01BC0180E091E00E94DF0180E033
S113056091E00E94360180E091E00E94E50120E0E4
S113057030E44CE156E40E945F039B01AC010E940D
S11305805F0320E030E44CE956E40E945E030E94DD
S11305903D046B017C0160327E44810591056CF45D
S11305A081EEC81681EBD8068FEFE806F8063CF416
S11305B0C02ED92CE82CF32C02C0730162014AE04E
S11305C0BE016E5F7F4FC6010E947405CE01029684
S11305D00E942302CE0101960E942E01BE016E5F8D
S11305E07F4FCE0101960E94EE002DEC3CEC4CE0D6
S11305F050E46AA97BA98CA99DA90E94CB030E94FF
S11306004404DC01CB014AE0BE016A5E7F4F0E94D4
S11306107405CE0146960E942302CE0101960E94E3
S11306203201BE016A5E7F4FCE0101960E94EE0048
S11306302DEBA21622E0B20658F03A9A4298C30172
S1130640B2016C197D098E099F090E94EB014BCF01
S11306503A9A429AC701B601605E714B8F4F9F4F21
S11306600E94EB0140CFE0E0F1E080E090E0A0E800
S1130670BEE3848B958BA68BB78B80E090E0A0EAD9
S1130680B1E4808F918FA28FB38F80E090E0A0E7D8
S1130690B1E4848F958FA68FB78F80E090E0A8E4B3
S11306A0B2E480A391A3A2A3B3A380E090E0AFE25D
S11306B0B4E484A395A3A6A3B7A308955058BB2775
S11306C0AA270E9476030C94C7040E94B90438F048
S11306D00E94C00420F039F49F3F19F426F40C94CE
S11306E0B6040EF4E095E7FB0C94B004E92F0E94E5
S11306F0D80458F3BA17620773078407950720F0E4
S113070079F4A6F50C94FA040EF4E0950B2EBA2FA6
S1130710A02D0B01B90190010C01CA01A001112403
S1130720FF27591B99F0593F50F4503E68F11A16AF
S1130730F040A22F232F342F4427585FF3CF469540
S113074037952795A795F0405395C9F77EF41F1662
S1130750BA0B620B730B840BBAF09150A1F0FF0F2C
S1130760BB1F661F771F881FC2F70EC0BA0F621F18
S1130770731F841F48F4879577956795B795F79508
S11307809E3F08F0B0CF9395880F08F09927EE0F9D
S11307909795879508950E94DF030C94C7040E94DF
S11307A0C00458F00E94B90440F029F45F3F29F0D6
S11307B00C94B00451110C94FB040C94B6040E94E4
S11307C0D80468F39923B1F3552391F3951B550B82
S11307D0BB27AA2762177307840738F09F5F5F4F10
S11307E0220F331F441FAA1FA9F335D00E2E3AF04F
S11307F0E0E832D091505040E695001CCAF72BD067
S1130800FE2F29D0660F771F881FBB1F26173707B7
S11308104807AB07B0E809F0BB0B802DBF01FF27E9
S113082093585F4F3AF09E3F510578F00C94B00412
S11308300C94FB045F3FE4F3983ED4F386957795DC
S11308406795B795F7959F5FC9F7880F911D9695A2
S1130850879597F90895E1E0660F771F881FBB1FFE
S1130860621773078407BA0720F0621B730B840BAB
S1130870BA0BEE1F88F7E09508950E94440468942B
S1130880B1110C94FB0408950E94E00488F09F5772
S113089098F0B92F9927B751B0F0E1F0660F771FA0
S11308A0881F991F1AF0BA95C9F714C0B13091F096
S11308B00E94FA04B1E008950C94FA04672F782F8B
S11308C08827B85F39F0B93FCCF38695779567955B
S11308D0B395D9F73EF490958095709561957F4FC7
S11308E08F4F9F4F0895E89409C097FB3EF490956D
S11308F08095709561957F4F8F4F9F4F9923A9F0F5
S1130900F92F96E9BB279395F69587957795679583
S1130910B795F111F8CFFAF4BB0F11F460FF1BC0C7
S11309206F5F7F4F8F4F9F4F16C0882311F096E95A
S113093011C0772321F09EE8872F762F05C0662308
S113094071F096E8862F70E060E02AF09A95660FC1
S1130950771F881FDAF7880F9695879597F908957A
S113096097F99F6780E870E060E008959FEF80EC5E
S1130970089500240A941616170618060906089501
S113098000240A9412161306140605060895092E67
S11309900394000C11F4882352F0BB0F40F4BF2BD6
S11309A011F460FF04C06F5F7F4F8F4F9F4F089516
S11309B057FD9058440F551F59F05F3F71F047950C
S11309C0880F97FB991F61F09F3F79F087950895F1
S11309D0121613061406551FF2CF4695F1DF08C010
S11309E0161617061806991FF1CF8695710561052D
S11309F008940895E894BB2766277727CB0197F9D5
S1130A0008950E9414050C94C7040E94B90438F098
S1130A100E94C00420F0952311F00C94B0040C94AF
S1130A20B60411240C94FB040E94D80470F3959F1F
S1130A30C1F3950F50E0551F629FF001729FBB27D1
S1130A40F00DB11D639FAA27F00DB11DAA1F649F6D
S1130A506627B00DA11D661F829F2227B00DA11D20
S1130A60621F739FB00DA11D621F839FA00D611DA6
S1130A70221F749F3327A00D611D231F849F600DC7
S1130A80211D822F762F6A2F11249F5750409AF0F0
S1130A90F1F088234AF0EE0FFF1FBB1F661F771F7C
S1130AA0881F91505040A9F79E3F510580F00C9447
S1130AB0B0040C94FB045F3FE4F3983ED4F38695B2
S1130AC077956795B795F795E7959F5FC1F7FE2BE7
S1130AD0880F911D9695879597F90895EE0FFF1F3E
S1130AE00590F491E02D0994BB274A3031F4992301
S1130AF022F4BDE2909581959F4F0C948005BB270D
S1130B00FB015527AA27880F991FAA1FA41710F0C5
S1130B10A41B83955051B9F7A05DAA3308F0A95DD1
S1130B20A193009779F7B111B1931192CB010C9471
S1130B309905DC01FC01672F71917723E1F7329766
S1130B4004C07C916D9370836291AE17BF07C8F3A4
S1090B500895F894FFCFA4
S9030000FC
