S01100004C75746F776E6963612E737265635D
S11300000C9435000C945D000C945D000C945D0020
S11300100C945D000C945D000C945D000C945D00E8
S11300200C945D000C945D000C945D000C945D00D8
S11300300C945D000C945D000C945D000C945D00C8
S11300400C945D000C945D000C945D000C945D00B8
S11300500C945D000C945D000C945D000C945D00A8
S11300600C945D000C945D000D0411241FBECFEFB1
S1130070D8E0DEBFCDBF11E0A0E0B1E0E2EEF8E0F1
S113008002C005900D92A830B107D9F721E0A8E08D
S1130090B1E001C01D92A433B207E1F710E0C5E35B
S11300A0D0E004C02197FE010E943404C433D10778
S11300B0C9F70E949E030C946F040C9400009FEFF8
S11300C0980F882391F00000000000000000000059
S11300D0000000000000000000000000000000001C
S11300E0000000000000915070F708959FEF980FF2
S11300F0882309F4A3C000000000000000000000F1
S113010000000000000000000000000000000000EB
S113011000000000000000000000000000000000DB
S113012000000000000000000000000000000000CB
S113013000000000000000000000000000000000BB
S113014000000000000000000000000000000000AB
S1130150000000000000000000000000000000009B
S1130160000000000000000000000000000000008B
S1130170000000000000000000000000000000007B
S1130180000000000000000000000000000000006B
S1130190000000000000000000000000000000005B
S11301A0000000000000000000000000000000004B
S11301B0000000000000000000000000000000003B
S11301C0000000000000000000000000000000002B
S11301D0000000000000000000000000000000001B
S11301E0000000000000000000000000000000000B
S11301F000000000000000000000000000000000FB
S113020000000000000000000000000000000000EA
S113021000000000000000000000000000000000DA
S113022000000000000000000000000000000000CA
S1130230000000000000915008F05DCF0895CF93B6
S1130240DF9300D0CDB7DEB77A83698389819A8141
S11302509C01215031093A832983892BB9F70F90E6
S11302600F90DF91CF9108955A982BB12F712BB92C
S11302704BB150E2659F90011124242B2BB9669554
S11302806695669525B1207E25B965B95C9A6FEFB0
S113029070E00E941F015C9808955A9A2BB12F7147
S11302A02BB94BB150E2659F90011124242B2BB93B
S11302B066956695669525B1207E25B965B95C9AE3
S11302C06FEF70E00E941F015C985A980895CF93D5
S11302D0DF93EC018AB18C618AB98BB1837E8BB9CF
S11302E08AB1806E8AB98BB18F718BB984B18F61F9
S11302F084B985B1807E85B985B1876085B95C9AFA
S11303006FEF7FEFCE010E941F015C9885B1897F5A
S113031085B98BB1806C8BB95C9A6FEF7FE0CE01AD
S11303200E941F015C985C9A6FEF7FE0CE010E94EF
S11303301F015C988BB18F738BB9289861E0CE0153
S11303400E94340162E0CE010E94340166E0CE01D5
S11303500E9434016FE0CE010E94340164E1CE01B9
S11303600E94340162E0CE010E943401DF91CF91FA
S11303700895BF92CF92DF92EF92FF920F931F9353
S1130380CF93DF937C018B01D4E10F2EF4E1BF2ED8
S1130390F02D6801F80180818A3071F48B2D8D1B5A
S11303A0843150F4DD2391F0C0E060E2C7010E9483
S11303B04D01CF5FDC13F9CF0F5F1F4FF601608152
S11303C0C7010E944D01D15021F709C00F5F1F4F93
S11303D0F6016081C7010E944D01D150DACFDF914F
S11303E0CF911F910F91FF90EF90DF90CF90BF902E
S11303F0089560E80E943401089568EA0E94340177
S11304000895389A409808953898409808950E941D
S1130410040286B181700895CF930E94010282E3A1
S11304200E9476000E94040286E00E947600CEE1DB
S11304300E940702813009F4A4C0000000000000FB
S113044000000000000000000000000000000000A8
S11304500000000000000000000000000000000098
S11304600000000000000000000000000000000088
S11304700000000000000000000000000000000078
S11304800000000000000000000000000000000068
S11304900000000000000000000000000000000058
S11304A00000000000000000000000000000000048
S11304B00000000000000000000000000000000038
S11304C00000000000000000000000000000000028
S11304D00000000000000000000000000000000018
S11304E00000000000000000000000000000000008
S11304F000000000000000000000000000000000F8
S113050000000000000000000000000000000000E7
S113051000000000000000000000000000000000D7
S113052000000000000000000000000000000000C7
S113053000000000000000000000000000000000B7
S113054000000000000000000000000000000000A7
S11305500000000000000000000000000000000097
S11305600000000000000000000000000000000087
S113057000000000000000000000C15009F058CF46
S11305808C2FCF910895CF930E94010286E00E94A0
S11305905F000E94040289E00E945F000E9407023B
S11305A0C82F87E30E945F008C2FCF910895CF92CC
S11305B0DF92FF920F931F93CF93DF938C01C0E0E0
S11305C0D0E0F12CCC24C394D12CC8010E94C302E6
S11305D0813041F4C6010C2E02C0880F991F0A9481
S11305E0E2F7F82A2196C830D10579F78F2DDF91EB
S11305F0CF911F910F91FF90DF90CF9008956111DB
S113060008C00E94010287E00E9476000E94040252
S113061008950E94010286E00E945F000E94040285
S113062086E00E9476000895EF92FF920F931F9345
S1130630CF93DF937C01C0E0D0E0062F10E0C80127
S11306400C2E02C0959587950A94E2F780FF05C0A9
S113065061E0C7010E94FF0204C060E0C7010E947C
S1130660FF022196C830D10551F7DF91CF911F9138
S11306700F91FF90EF900895CF93DF93EC016CEC12
S11306800E94140364E4CE010E941403DF91CF910D
S113069008951F93CF93DF93EC016CEC0E94140335
S11306A06EEBCE010E941403CE010E94D702182FD4
S11306B0CE010E94D702212F30E0A901582BCA0194
S11306C0DF91CF911F9108950E9404020895CF9362
S11306D0DF9300D000D0CDB7DEB769837A838B83F4
S11306E09C8389819A81AB81BC81AC01BD0141505D
S11306F051096109710949835A836B837C83892B6E
S11307008A2B8B2B71F70F900F900F900F90DF9126
S1130710CF910895FC019C0121503F4FDF0181914D
S113072090ED980F9C3030F08D52823018F08AE0B2
S11307308C930895E217F30789F70895CF93DF9315
S1130740CDB7DEB767970FB6F894DEBF0FBECDBF47
S1130750CE0101960E94670161E0CE0101960E94DC
S1130760340162E0CE0101960E9434016CE0CE01B6
S113077001960E943401CE0102960E94640387E828
S113078080937A0085E08093810010928500109216
S1130790840081E08F8B3A9A4298CE0102960E949F
S11307A00C02813071F4CE0102960E943C03CE010A
S11307B001960E94F90160E071E0CE0101960E9469
S11307C0B9016FEF7FEF84E190E00E946703CE01EF
S11307D002960E940C02882301F3CE0102960E9425
S11307E049034AE0BE016D5F7F4F929582958F70F9
S11307F089279F7089270E943A04CE0103960E949C
S11308008A03CE0101960E94FD01BE016D5F7F4FF8
S1130810CE0101960E94B901C0CFE8E0F1E087E380
S113082099E8A1E8BEE3848B958BA68BB78B80E017
S113083090E0A8E4B4E4808F918FA28FB38F80E01E
S113084090E0A8E4B3E4848F958FA68FB78F10A2AD
S113085011A212A213A280E090E8A2E2B4E480A75D
S113086091A7A2A7B3A70895EE0FFF1F0590F491D7
S1130870E02D0994BB274A3031F4992322F4BDE2D8
S1130880909581959F4F0C944604BB27FB015527F7
S1130890AA27880F991FAA1FA41710F0A41B8395D9
S11308A05051B9F7A05DAA3308F0A95DA193009750
S11308B079F7B111B1931192CB010C945F04DC016F
S11308C0FC01672F71917723E1F7329704C07C9183
S11308D06D9370836291AE17BF07C8F30895F894BF
S10508E0FFCF44
S10B08E272657365740A0000DD
S9030000FC
