:100000000C9435000C945D000C945D000C945D0024
:100010000C945D000C945D000C945D000C945D00EC
:100020000C945D000C945D000C945D000C945D00DC
:100030000C945D000C943E020C945D000C945D00E9
:100040000C945D000C945D000C945D000C945D00BC
:100050000C945D000C945D000C945D000C945D00AC
:100060000C945D000C945D00DE0411241FBECFEFE4
:10007000D8E0DEBFCDBF11E0A0E0B1E0E2E2FFE0FA
:1000800002C005900D92AC30B107D9F721E0ACE089
:10009000B1E001C01D92AC34B207E1F710E0C5E356
:1000A000D0E004C02197FE010E945407C433D10759
:1000B000C9F70E94AC030C948F070C940000CF93F7
:1000C000DF9300D0CDB7DEB77A83698389819A81C7
:1000D0009C01215031093A832983892BB9F70F906C
:1000E0000F90DF91CF9108955A982BB12F712BB9B2
:1000F0004BB150E2659F90011124242B2BB96695DA
:100100006695669525B1207E25B965B95C9A6FEF35
:1001100070E00E945F005C9808955A9A2BB12F718D
:100120002BB94BB150E2659F90011124242B2BB9C0
:1001300066956695669525B1207E25B965B95C9A68
:100140006FEF70E00E945F005C985A980895CF931B
:10015000DF93EC018AB18C618AB98BB1837E8BB954
:100160008AB1806E8AB98BB18F718BB984B18F617E
:1001700084B985B1807E85B985B1876085B95C9A7F
:100180006FEF7FEFCE010E945F005C9885B1897FA1
:1001900085B98BB1806C8BB95C9A6FEF7FE0CE0133
:1001A0000E945F005C985C9A6FEF7FE0CE010E9436
:1001B0005F005C988BB18F738BB9289861E0CE019A
:1001C0000E94740062E0CE010E94740066E0CE01DD
:1001D0000E9474006FE0CE010E94740064E1CE01C1
:1001E0000E94740062E0CE010E947400DF91CF9102
:1001F0000895BF92CF92DF92EF92FF920F931F93D9
:10020000CF93DF937C018B01D4E10F2EF4E1BF2E5D
:10021000F02D6801F80180818A3071F48B2D8D1BDF
:10022000843150F4DD2391F0C0E060E2C7010E9408
:100230008D00CF5FDC13F9CF0F5F1F4FF601608198
:10024000C7010E948D00D15021F709C00F5F1F4FD9
:10025000F6016081C7010E948D00D150DACFDF9195
:10026000CF911F910F91FF90EF90DF90CF90BF90B3
:10027000089560E80E9474000895389840980895A1
:100280000E943D0108954F925F926F927F928F92EC
:100290009F92AF92BF92CF92DF92EF92FF92CF9355
:1002A000DF9300D000D000D0CDB7DEB79E838D8322
:1002B000FC0124A135A146A157A160A571A582A585
:1002C00093A50E9409056B017C01ED81FE8160838D
:1002D00071838283938384889588A688B788A501D3
:1002E00094010E94D306ED81FE81248535854685E3
:1002F00057850E940A052B013C01ED81FE81648730
:100300007587868797872481358146815781C70104
:10031000B6010E940905A50194010E947B054B01CD
:100320005C01ED81FE816087718782879387208DD4
:10033000318D428D538DC701B6010E94D30669836A
:100340007A838B839C83ED81FE81248D358D468D50
:10035000578DC301B2010E94D3069B01AC01698194
:100360007A818B819C810E940A052B013C01ED81E1
:10037000FE8120A131A142A153A1C501B4010E9477
:10038000D3069B01AC01C301B2010E940A05ED81B5
:10039000FE81608B718B828B938BC482D582E682C7
:1003A000F78226960FB6F894DEBF0FBECDBFDF9161
:1003B000CF91FF90EF90DF90CF90BF90AF909F9044
:1003C0008F907F906F905F904F900895FC0144A3B1
:1003D00055A366A377A30895FC016089718982897A
:1003E00093890895CF93DF9300D000D0CDB7DEB7C7
:1003F00069837A838B839C8389819A81AB81BC8159
:10040000AC01BD01415051096109710949835A8309
:100410006B837C83892B8A2B8B2B71F70F900F902A
:100420000F900F90DF91CF910895806480937C00AE
:10043000EAE7F0E0808180648083808186FDFDCFE3
:10044000209178008091790090E0982F8827820F82
:10045000911D0895FC019C0121503F4FDF018191C6
:1004600090ED980F9C3030F08D52823018F08AE079
:100470008C930895E217F30789F708951F920F925E
:100480000FB60F9211242F933F934F935F936F9367
:100490007F938F939F93AF93BF93CF93DF93EF930C
:1004A000FF9381E080930E0180911F018111E6C0CE
:1004B0003A9A429881E00E9415028D3B9240D0F713
:1004C0006FEF70E080E090E00E94F20181E00E9416
:1004D0001502C7E1D1E09983888381E00E9415026B
:1004E0009B838A8381E00E9415029D838C8381E037
:1004F0000E9415029F838E83688179818A819B8106
:100500004C815D812E813F81860F971F840F951F3F
:10051000820F931F9093160180931501809115010E
:1005200090911601969587959695879590931601CB
:1005300080931501609115017091160180E090E0A3
:100540000E941C06AB01BC0180E291E00E94E60122
:1005500080E291E00E94430180E291E00E94EC0180
:100560006093110170931201809313019093140111
:100570006091110170911201809113019091140109
:1005800020E030E04AE757E40E94CE06181664F4F3
:1005900080E090E0AAE7B7E4809311019093120104
:1005A000A0931301B0931401609111017091120195
:1005B000809113019091140120E030E04AE757EC5C
:1005C0000E947605882364F480E090E0AAE7B7EC07
:1005D0008093110190931201A0931301B093140121
:1005E0006091110170911201809113019091140199
:1005F00020E030E04AE757E40E940A0520E030E0BE
:1006000040E05FE30E94D30620E030E0A9010E94B1
:100610000A050E94ED0570930D0160930C01809115
:100620000C0190910D019093100180930F01809126
:100630000C0190910D0181159A4F30F080E09AEFF6
:1006400090930D0180930C0180910C0190910D010C
:100650000B9730F48AE090E090930D0180930C01A9
:1006600080910C0190910D019093850080938400FE
:100670003A9A429881E080931F0110C020910C01AA
:1006800030910D0180E09AEF821B930B90938500CF
:10069000809384003A9A429A10921F0110920E01A0
:1006A000FF91EF91DF91CF91BF91AF919F918F918A
:1006B0007F916F915F914F913F912F910F900FBE5E
:1006C0000F901F901895CF93DF93EC0188818A30AB
:1006D000D1F1FE01319691E021912A3021F09F5F06
:1006E0009D3FD1F730C0FB0180818A3039F49F3FB4
:1006F00081F42FC021912A3039F4F9CFFB013196D2
:10070000AB0143505F4FF6CFE417F50799F7EFCFF2
:1007100090E0FE01E90FF11D8083FB0180818A30AA
:10072000C1F020E00BC0FB01E20FF11D8081DE0172
:10073000A90FB11D8C9330813A3059F02F5F9F5F24
:100740009F3F89F706C0FB0180818A3009F390E062
:10075000D5CFDF91CF910895CF93DF93CDB7DEB79B
:10076000EF970FB6F894DEBF0FBECDBFCE01019656
:100770000E94A70061E0CE0101960E94740062E031
:10078000CE0101960E9474006CE0CE0101960E9499
:100790007400CE0102960E94400187E880937A009F
:1007A00083E080938100109285001092840081E0A4
:1007B00080936F008FAF3A9A429807E111E08FADB6
:1007C000882309F46BC03A9A429881E00E9415028E
:1007D0008D3B9240D0F781E00E941502F801918391
:1007E000808381E00E941502F8019383828381E077
:1007F0000E941502F8019583848381E00E9415020E
:10080000F8019783868360817181428153812481BD
:10081000358186819781460F571F240F351F820F20
:10082000931F90931601809315018091150190916B
:1008300016019695879596958795909316018093C6
:10084000150180911501909116014AE0BE016D5F7E
:100850007F4F0E945A07CE0103960E942A02CE01C2
:1008600001960E943901BE016D5F7F4FCE01019656
:100870000E94F90080911501909116018A389240EA
:1008800020F03A9A42981FAE9ACF3A9A429A60E282
:100890007EE480E090E00E94F20191CF3A9A429883
:1008A00078946894EE24E7F8FF24F1F801E216E06A
:1008B0006894992495F880910E01811178C0A090D8
:1008C0000F01B0901001C0901501D0901601C50124
:1008D000B7010E944007CB014AE0BE016D5F7F4F28
:1008E0000E945A07C501B8010E944007CB014AE0A7
:1008F000BE01655D7F4F0E945A07B60180E090E01F
:100900000E941C062DEC3CEC4CEE5FE30E947B0544
:100910000E94ED05DC01CB014AE0BE01695E7F4F1C
:100920000E945A07CE0103960E942A02CE018B969E
:100930000E942A02CE0147960E942A028C818A30A8
:1009400021F48D838B818C839B828CA58A3021F44A
:100950008DA78BA58CA79BA660E071E0CE010396C6
:100960000E946303BE01655D7F4FCE0103960E9426
:10097000630364E071E0CE0103960E94630367E0C5
:1009800071E0CE0147960E946303BE016D5F7F4F09
:10099000CE0147960E946303CE0101960E94390161
:1009A000BE01695E7F4FCE0101960E94F9006FEF94
:1009B0007FEF80E090E00E94F2017DCFE0E2F1E085
:1009C0008AEB99E4ACE8BEE3848B958BA68BB78B5E
:1009D00080E090E0A8ECB3E4808F918FA28FB38F7A
:1009E00080E090E8ABE3B4E4848F958FA68FB78F57
:1009F00080E090E0A6E9B2E480A391A3A2A3B3A310
:100A000080E090E8A2E2B4E480A791A7A2A7B3A7F0
:100A100008955058BB27AA270E9421050C949406DC
:100A20000E94860638F00E948D0620F039F49F3F20
:100A300019F426F40C9483060EF4E095E7FB0C946D
:100A40007D06E92F0E94A50658F3BA1762077307BF
:100A50008407950720F079F4A6F50C94C7060EF4E8
:100A6000E0950B2EBA2FA02D0B01B90190010C01BE
:100A7000CA01A0011124FF27591B99F0593F50F4D6
:100A8000503E68F11A16F040A22F232F342F44272E
:100A9000585FF3CF469537952795A795F040539526
:100AA000C9F77EF41F16BA0B620B730B840BBAF0F6
:100AB0009150A1F0FF0FBB1F661F771F881FC2F761
:100AC0000EC0BA0F621F731F841F48F48795779575
:100AD0006795B795F7959E3F08F0B0CF9395880F2F
:100AE00008F09927EE0F9795879508950E9459066B
:100AF00008F481E008950E948F050C9494060E94EA
:100B00008D0658F00E94860640F029F45F3F29F0D8
:100B10000C947D0651110C94C8060C9483060E9417
:100B2000A50668F39923B1F3552391F3951B550B53
:100B3000BB27AA2762177307840738F09F5F5F4FB0
:100B4000220F331F441FAA1FA9F335D00E2E3AF0EF
:100B5000E0E832D091505040E695001CCAF72BD007
:100B6000FE2F29D0660F771F881FBB1F2617370758
:100B70004807AB07B0E809F0BB0B802DBF01FF278A
:100B800093585F4F3AF09E3F510578F00C947D06E4
:100B90000C94C8065F3FE4F3983ED4F386957795AE
:100BA0006795B795F7959F5FC9F7880F911D969543
:100BB000879597F90895E1E0660F771F881FBB1F9F
:100BC000621773078407BA0720F0621B730B840B4C
:100BD000BA0BEE1F88F7E09508950E94AD0688F0E5
:100BE0009F5798F0B92F9927B751B0F0E1F0660FF1
:100BF000771F881F991F1AF0BA95C9F714C0B13032
:100C000091F00E94C706B1E008950C94C706672FC3
:100C1000782F8827B85F39F0B93FCCF38695779560
:100C20006795B395D9F73EF4909580957095619549
:100C30007F4F8F4F9F4F0895E89409C097FB3EF474
:100C400090958095709561957F4F8F4F9F4F992319
:100C5000A9F0F92F96E9BB279395F6958795779597
:100C60006795B795F111F8CFFAF4BB0F11F460FF57
:100C70001BC06F5F7F4F8F4F9F4F16C0882311F0AF
:100C800096E911C0772321F09EE8872F762F05C0C3
:100C9000662371F096E8862F70E060E02AF09A955E
:100CA000660F771F881FDAF7880F9695879597F953
:100CB0000895990F0008550FAA0BE0E8FEEF1616ED
:100CC0001706E807F907C0F012161306E407F50740
:100CD00098F0621B730B840B950B39F40A2661F0B4
:100CE000232B242B252B21F408950A2609F4A14057
:100CF000A6958FEF811D811D089597F99F6780E864
:100D000070E060E008959FEF80EC089500240A945D
:100D10001616170618060906089500240A941216D6
:100D20001306140605060895092E0394000C11F409
:100D3000882352F0BB0F40F4BF2B11F460FF04C0B6
:100D40006F5F7F4F8F4F9F4F089557FD9058440F0F
:100D5000551F59F05F3F71F04795880F97FB991F1A
:100D600061F09F3F79F087950895121613061406D7
:100D7000551FF2CF4695F1DF08C016161706180664
:100D8000991FF1CF86957105610508940895E8943F
:100D9000BB2766277727CB0197F908950E9459064C
:100DA00008F48FEF08950E94E6060C9494060E94C2
:100DB000860638F00E948D0620F0952311F00C94E1
:100DC0007D060C94830611240C94C8060E94A50687
:100DD00070F3959FC1F3950F50E0551F629FF0018E
:100DE000729FBB27F00DB11D639FAA27F00DB11DA7
:100DF000AA1F649F6627B00DA11D661F829F222730
:100E0000B00DA11D621F739FB00DA11D621F839FB6
:100E1000A00D611D221F749F3327A00D611D231F8C
:100E2000849F600D211D822F762F6A2F11249F57DA
:100E300050409AF0F1F088234AF0EE0FFF1FBB1FDD
:100E4000661F771F881F91505040A9F79E3F51059C
:100E500080F00C947D060C94C8065F3FE4F3983E46
:100E6000D4F3869577956795B795F795E7959F5F46
:100E7000C1F7FE2B880F911D9695879597F90895D8
:100E8000AA1BBB1B51E107C0AA1FBB1FA617B707B0
:100E900010F0A61BB70B881F991F5A95A9F78095CC
:100EA0009095BC01CD010895EE0FFF1F0590F491C0
:100EB000E02D0994BB274A3031F4992322F4BDE296
:100EC000909581959F4F0C946607BB27FB01552792
:100ED000AA27880F991FAA1FA41710F0A41B839597
:100EE0005051B9F7A05DAA3308F0A95DA19300970E
:100EF00079F7B111B1931192CB010C947F07DC010A
:100F0000FC01672F71917723E1F7329704C07C9140
:100F10006D9370836291AE17BF07C8F30895F8947C
:020F2000FFCF01
:0C0F220025200A00570A002743200A007F
:00000001FF
