:100000000C9435000C945D000C945D000C945D0024
:100010000C945D000C945D000C945D000C945D00EC
:100020000C945D000C945D000C945D000C945D00DC
:100030000C945D000C9442020C945D000C945D00E5
:100040000C945D000C945D000C945D000C945D00BC
:100050000C945D000C945D000C945D000C945D00AC
:100060000C945D000C945D00FA0311241FBECFEFC9
:10007000D8E0DEBFCDBF11E0A0E0B1E0ECEDFCE0E8
:1000800002C005900D92A030B107D9F721E0A0E0A1
:10009000B1E001C01D92AC33B207E1F710E0C5E357
:1000A000D0E004C02197FE010E943106C433D1077D
:1000B000C9F70E9410030C946C060C940000CF93B7
:1000C000DF9300D0CDB7DEB77A83698389819A81C7
:1000D0009C01215031093A832983892BB9F70F906C
:1000E0000F90DF91CF9108955A982BB12F712BB9B2
:1000F0004BB150E2659F90011124242B2BB96695DA
:100100006695669525B1207E25B965B95C9A6FEF35
:1001100070E00E945F005C9808955A9A2BB12F718D
:100120002BB94BB150E2659F90011124242B2BB9C0
:1001300066956695669525B1207E25B965B95C9A68
:100140006FEF70E00E945F005C985A980895CF931B
:10015000DF93EC018AB18C618AB98BB1837E8BB954
:100160008AB1806E8AB98BB18F718BB984B18F617E
:1001700084B985B1807E85B985B1876085B95C9A7F
:100180006FEF7FEFCE010E945F005C9885B1897FA1
:1001900085B98BB1806C8BB95C9A6FEF7FE0CE0133
:1001A0000E945F005C985C9A6FEF7FE0CE010E9436
:1001B0005F005C988BB18F738BB9289861E0CE019A
:1001C0000E94740062E0CE010E94740066E0CE01DD
:1001D0000E9474006FE0CE010E94740064E1CE01C1
:1001E0000E94740062E0CE010E947400DF91CF9102
:1001F0000895BF92CF92DF92EF92FF920F931F93D9
:10020000CF93DF937C018B01D4E10F2EF4E1BF2E5D
:10021000F02D6801F80180818A3071F48B2D8D1BDF
:10022000843150F4DD2391F0C0E060E2C7010E9408
:100230008D00CF5FDC13F9CF0F5F1F4FF601608198
:10024000C7010E948D00D15021F709C00F5F1F4FD9
:10025000F6016081C7010E948D00D150DACFDF9195
:10026000CF911F910F91FF90EF90DF90CF90BF90B3
:10027000089560E80E947400089568EA0E9474007E
:1002800008953898409808950E94410108954F922A
:100290005F926F927F928F929F92AF92BF92CF9216
:1002A000DF92EF92FF92CF93DF9300D000D000D087
:1002B000CDB7DEB79E838D83FC0124A135A146A175
:1002C00057A160A571A582A593A50E9421046B0189
:1002D0007C01ED81FE8160837183828393838488B6
:1002E0009588A688B788A50194010E94C405ED8170
:1002F000FE8124853585468557850E9422042B0181
:100300003C01ED81FE81648775878687978724810C
:10031000358146815781C701B6010E942104A5019C
:1003200094010E948E044B015C01ED81FE81608787
:10033000718782879387208D318D428D538DC701C0
:10034000B6010E94C40569837A838B839C83ED8107
:10035000FE81248D358D468D578DC301B2010E94DB
:10036000C4059B01AC0169817A818B819C810E94CB
:1003700022042B013C01ED81FE8120A131A142A18B
:1003800053A1C501B4010E94C4059B01AC01C30186
:10039000B2010E942204ED81FE81608B718B828B01
:1003A000938BC482D582E682F78226960FB6F894A4
:1003B000DEBF0FBECDBFDF91CF91FF90EF90DF90FA
:1003C000CF90BF90AF909F908F907F906F905F90F5
:1003D0004F900895FC0144A355A366A377A3089505
:1003E000FC0160897189828993890895CF93DF9395
:1003F00000D000D0CDB7DEB769837A838B839C832E
:1004000089819A81AB81BC81AC01BD014150510908
:100410006109710949835A836B837C83892B8A2BF9
:100420008B2B71F70F900F900F900F90DF91CF9162
:100430000895806480937C00EAE7F0E08081806426
:100440008083808186FDFDCF2091780080917900A6
:1004500090E0982F8827820F911D0895FC019C0140
:1004600021503F4FDF01819190ED980F9C3030F08B
:100470008D52823018F08AE08C930895E217F307CA
:1004800089F708951F920F920FB60F9211242F93A0
:100490003F934F935F936F937F938F939F93AF930C
:1004A000BF93CF93DF93EF93FF9381E0809300019D
:1004B0003A9A429881E00E94190287329240D0F71E
:1004C00081E00E941902C7E0D1E09983888381E02E
:1004D0000E9419029B838A8381E00E9419029D83F6
:1004E0008C8381E00E9419029F838E8368817981C9
:1004F0008A819B814C815D812E813F81860F971F70
:10050000840F951F820F931F90930601809305011E
:10051000809105019091060196958795969587950E
:100520009093060180930501609105017091060189
:1005300080E090E00E943605AB01BC0180E191E0D3
:100540000E94EA0180E191E00E94470180E191E090
:100550000E94F001609301017093020180930301F6
:100560009093040160910101709102018091030157
:100570009091040120E030E04AEF56E40E9422040A
:1005800020E030E04AEF56E40E9421040E9400057A
:1005900061152DE772078105910564F4613023E848
:1005A00072072FEF820792074CF464E470E88FEF34
:1005B0009FEF04C060E07DE780E090E020910F01B4
:1005C00021110CC0685070487093850060938400BE
:1005D0003A9A429881E080930F010DC028EF3FE7DF
:1005E000C901861B970B90938500809384003A9AEB
:1005F000429A10920F0110920001FF91EF91DF914A
:10060000CF91BF91AF919F918F917F916F915F91AA
:100610004F913F912F910F900FBE0F901F90189503
:10062000CF93DF93CDB7DEB7AB970FB6F894DEBFAD
:100630000FBECDBFCE0101960E94A70061E0CE01A2
:1006400001960E94740062E0CE0101960E9474003F
:100650006CE0CE0101960E947400CE0102960E94C9
:10066000440187E880937A0083E0809381001092B0
:1006700085001092840081E080936F008BA73A9AE6
:10068000429807E011E08BA5882309F46BC03A9AE1
:10069000429881E00E9419028D3B9240D0F781E0A0
:1006A0000E941902F8019183808381E00E9419025F
:1006B000F8019383828381E00E941902F8019583F7
:1006C000848381E00E941902F80197838683608108
:1006D0007181428153812481358186819781460FC2
:1006E000571F240F351F820F931F9093060180938D
:1006F0000501809105019091060196958795969543
:100700008795909306018093050180910501909152
:1007100006014AE0BE016D5F7F4F0E943706CE01A1
:1007200003960E942E02CE0101960E943901BE015D
:100730006D5F7F4FCE0101960E94F9008091050107
:1007400090910601823C914020F03A9A42981BA673
:100750009ACF3A9A429A60E27EE480E090E00E946A
:10076000F60191CF3A9A42987894809100018111D4
:100770003AC0609101017091020180910301909152
:1007800004010E940705DC01CB014AE0BE016D5F58
:100790007F4F0E943706CE0103960E942E02CE01A3
:1007A00001960E943901BE016D5F7F4FCE01019617
:1007B0000E94F90080910501909106014AE0BE0176
:1007C000695E7F4F0E943706CE0147960E942E0237
:1007D000CE0101960E943D01BE01695E7F4FCE01B0
:1007E00001960E94F9006FEF7FEF80E090E00E9499
:1007F000F601BBCFE0E1F1E08AEB99E4ACE8BEE3BF
:10080000848B958BA68BB78B80E090E0A6E1B3E458
:10081000808F918FA28FB38F80E090E0A8E4B2E444
:10082000848F958FA68FB78F10A211A212A213A248
:1008300080E090E0A1EEB3E480A791A7A2A7B3A7C0
:1008400008955058BB27AA270E9439040C948A05A2
:100850000E947C0538F00E94830520F039F49F3F08
:1008600019F426F40C9479050EF4E095E7FB0C944A
:100870007305E92F0E949B0558F3BA1762077307A7
:100880008407950720F079F4A6F50C94BD050EF4C5
:10089000E0950B2EBA2FA02D0B01B90190010C0190
:1008A000CA01A0011124FF27591B99F0593F50F4A8
:1008B000503E68F11A16F040A22F232F342F442700
:1008C000585FF3CF469537952795A795F0405395F8
:1008D000C9F77EF41F16BA0B620B730B840BBAF0C8
:1008E0009150A1F0FF0FBB1F661F771F881FC2F733
:1008F0000EC0BA0F621F731F841F48F48795779547
:100900006795B795F7959E3F08F0B0CF9395880F00
:1009100008F09927EE0F9795879508950E94A204F5
:100920000C948A050E94830558F00E947C0540F0D3
:1009300029F45F3F29F00C94730551110C94BE0506
:100940000C9479050E949B0568F39923B1F3552314
:1009500091F3951B550BBB27AA27621773078407D2
:1009600038F09F5F5F4F220F331F441FAA1FA9F368
:1009700035D00E2E3AF0E0E832D091505040E69556
:10098000001CCAF72BD0FE2F29D0660F771F881FB7
:10099000BB1F261737074807AB07B0E809F0BB0BAA
:1009A000802DBF01FF2793585F4F3AF09E3F5105BE
:1009B00078F00C9473050C94BE055F3FE4F3983E09
:1009C000D4F3869577956795B795F7959F5FC9F7A7
:1009D000880F911D9695879597F90895E1E0660F28
:1009E000771F881FBB1F621773078407BA0720F0A1
:1009F000621B730B840BBA0BEE1F88F7E09508950A
:100A00000E9407056894B1110C94BE0508950E94D8
:100A1000A30588F09F5798F0B92F9927B751B0F0E8
:100A2000E1F0660F771F881F991F1AF0BA95C9F772
:100A300014C0B13091F00E94BD05B1E008950C944E
:100A4000BD05672F782F8827B85F39F0B93FCCF301
:100A5000869577956795B395D9F73EF490958095EF
:100A6000709561957F4F8F4F9F4F0895E89409C00F
:100A700097FB3EF490958095709561957F4F8F4FD1
:100A80009F4F9923A9F0F92F96E9BB279395F695E7
:100A9000879577956795B795F111F8CFFAF4BB0F65
:100AA00011F460FF1BC06F5F7F4F8F4F9F4F16C0C9
:100AB000882311F096E911C0772321F09EE8872F53
:100AC000762F05C0662371F096E8862F70E060E00F
:100AD0002AF09A95660F771F881FDAF7880F969588
:100AE000879597F9089597F99F6780E870E060E02F
:100AF00008959FEF80EC089500240A9416161706B7
:100B000018060906089500240A94121613061406FE
:100B100005060895092E0394000C11F4882352F061
:100B2000BB0F40F4BF2B11F460FF04C06F5F7F4F19
:100B30008F4F9F4F089557FD9058440F551F59F000
:100B40005F3F71F04795880F97FB991F61F09F3FBA
:100B500079F087950895121613061406551FF2CFE3
:100B60004695F1DF08C0161617061806991FF1CF33
:100B700086957105610508940895E894BB2766275A
:100B80007727CB0197F908950E94D7050C948A0521
:100B90000E947C0538F00E94830520F0952311F017
:100BA0000C9473050C94790511240C94BE050E94D5
:100BB0009B0570F3959FC1F3950F50E0551F629F01
:100BC000F001729FBB27F00DB11D639FAA27F00DA6
:100BD000B11DAA1F649F6627B00DA11D661F829FCD
:100BE0002227B00DA11D621F739FB00DA11D621FB2
:100BF000839FA00D611D221F749F3327A00D611DCF
:100C0000231F849F600D211D822F762F6A2F1124B0
:100C10009F5750409AF0F1F088234AF0EE0FFF1FE3
:100C2000BB1F661F771F881F91505040A9F79E3F3A
:100C3000510580F00C9473050C94BE055F3FE4F3FE
:100C4000983ED4F3869577956795B795F795E79590
:100C50009F5FC1F7FE2B880F911D9695879597F999
:100C60000895EE0FFF1F0590F491E02D0994BB2726
:100C70004A3031F4992322F4BDE2909581959F4F3B
:100C80000C944306BB27FB015527AA27880F991F01
:100C9000AA1FA41710F0A41B83955051B9F7A05DAB
:100CA000AA3308F0A95DA193009779F7B111B19328
:100CB0001192CB010C945C06DC01FC01672F719151
:100CC0007723E1F7329704C07C916D937083629132
:0C0CD000AE17BF07C8F30895F894FFCFDB
:00000001FF
