:100000000C9435000C9452000C9452000C94520045
:100010000C9452000C9452000C9452000C94520018
:100020000C9452000C9452000C9452000C94520008
:100030000C9452000C9452000C9452000C945200F8
:100040000C9452000C9452000C9452000C945200E8
:100050000C9452000C9452000C9452000C945200D8
:100060000C9452000C945200030411241FBECFEFD5
:10007000D8E0DEBFCDBF21E0A0E0B1E001C01D921D
:10008000AC32B207E1F710E0C5E3D0E004C021973D
:10009000FE010E943A06C433D107C9F70E948B02C1
:1000A0000C9475060C940000CF93DF9300D0CDB76D
:1000B000DEB77A83698389819A819C012150310955
:1000C0003A832983892BB9F70F900F90DF91CF9155
:1000D00008955A982BB12F712BB94BB150E2659FFF
:1000E00090011124242B2BB966956695669525B150
:1000F000207E25B965B95C9A6FEF70E00E945400CC
:100100005C9808955A9A2BB12F712BB94BB150E2DC
:10011000659F90011124242B2BB9669566956695F1
:1001200025B1207E25B965B95C9A6FEF70E00E9419
:1001300054005C985A980895CF93DF93EC018AB1EC
:100140008C618AB98BB1837E8BB98AB1806E8AB992
:100150008BB18F718BB984B18F6184B985B1807E89
:1001600085B985B1876085B95C9A6FEF7FEFCE0165
:100170000E9454005C9885B1897F85B98BB1806CF1
:100180008BB95C9A6FEF7FE0CE010E9454005C98BF
:100190005C9A6FEF7FE0CE010E9454005C988BB1B7
:1001A0008F738BB9289861E0CE010E94690062E0EC
:1001B000CE010E94690066E0CE010E9469006FE0F6
:1001C000CE010E94690064E1CE010E94690062E0F4
:1001D000CE010E946900DF91CF910895BF92CF9226
:1001E000DF92EF92FF920F931F93CF93DF937C01E7
:1001F0008B01D4E10F2EF4E1BF2EF02D6801F80140
:1002000080818A3071F48B2D8D1B843150F4DD2375
:1002100091F0C0E060E2C7010E948200CF5FDC1372
:10022000F9CF0F5F1F4FF6016081C7010E94820066
:10023000D15021F709C00F5F1F4FF6016081C70140
:100240000E948200D150DACFDF91CF911F910F91A0
:10025000FF90EF90DF90CF90BF90089560E80E94EC
:100260006900089568EA0E94690008954F925F92BC
:100270006F927F928F929F92AF92BF92CF92DF92B6
:10028000EF92FF92CF93DF9300D000D000D0CDB794
:10029000DEB79E838D83FC0124A135A146A157A121
:1002A00060A571A582A593A50E942A046B017C011B
:1002B000ED81FE8160837183828393838488958836
:1002C000A688B788A50194010E94CD05ED81FE8125
:1002D00024853585468557850E942B042B013C01DA
:1002E000ED81FE81648775878687978724813581B4
:1002F00046815781C701B6010E942A04A5019401D5
:100300000E9497044B015C01ED81FE81608771873B
:1003100082879387208D318D428D538DC701B60121
:100320000E94CD0569837A838B839C83ED81FE8156
:10033000248D358D468D578DC301B2010E94CD05A8
:100340009B01AC0169817A818B819C810E942B0485
:100350002B013C01ED81FE8120A131A142A153A1DD
:10036000C501B4010E94CD059B01AC01C301B201DE
:100370000E942B04ED81FE81608B718B828B938BAD
:10038000C482D582E682F78226960FB6F894DEBF45
:100390000FBECDBFDF91CF91FF90EF90DF90CF9058
:1003A000BF90AF909F908F907F906F905F904F9095
:1003B0000895FC0140A751A762A773A70895FC0107
:1003C00044A355A366A377A30895FC0160897189AE
:1003D000828993890895CF93DF9300D000D0CDB761
:1003E000DEB769837A838B839C8389819A81AB8111
:1003F000BC81AC01BD0141505109610971094983BA
:100400005A836B837C83892B8A2B8B2B71F70F90FC
:100410000F900F900F90DF91CF910895806480939B
:100420007C00EAE7F0E0808180648083808186FD43
:10043000FDCF209178008091790090E0982F882757
:10044000820F911D0895FC019C0121503F4FDF0157
:10045000819190ED980F9C3030F08D52823018F0E1
:100460008AE08C930895E217F30789F70895CF93F4
:10047000DF93DC018C918A3009F444C0FD01319690
:1004800091E021912A3021F09F5F9D3FD1F73AC042
:10049000FB0180818A3029F40DC021912A3039F482
:1004A00009C0FB013196AB0143505F4FF6CF4E17A9
:1004B0005F0799F7FD01E90FF11D80E280839F5FDF
:1004C0009F3F31F1FB018081FD01E90FF11D808328
:1004D000FB0180818A30E1F020E00BC0FB01E20FDC
:1004E000F11D8081ED01C90FD11D888330813A3023
:1004F00079F02F5F9F5F9F3F89F70AC080E28C935E
:1005000091E0E0CFFB0180818A30C1F390E0C9CF58
:10051000DF91CF910895CF93DF93CDB7DEB7C75466
:10052000D1400FB6F894DEBF0FBECDBFCE0101960D
:100530000E949C0061E0CE0101960E94690062E089
:10054000CE0101960E9469006CE0CE0101960E94E6
:10055000690087E880937A0085E08093810004E851
:1005600010E0F8011182108240E050E061E174E493
:1005700080E091E00E94D901F8011182108210E020
:10058000312C412C512C3201A12CB12C4E01FAEB13
:100590008F1AFEEF9F0AF12E032DE4E8F0E0808130
:1005A0009181118210823A9A429881E00E940E0253
:1005B0008D3B9240D0F781E00E940E02E12FF0E0E7
:1005C000EE0FFF1F21E030E02C0F3D1FE20FF31F65
:1005D00096AF85AF1F5F1530C8F0AEACBFAC2296AA
:1005E0008EAD9FAD2297A80EB91E24968EAD9FADFD
:1005F0002497A80EB91E26968EAD9FAD2697A80EFD
:10060000B91EB694A794B694A79410E0E6E4F0E07F
:10061000EC0FFD1F34E0039FE00DF11D1124C50117
:10062000A0E0B0E080839183A283B3830F5F0134A5
:1006300008F000E0FE01EA5BFF4F81919191A191EA
:10064000B191480E591E6A1E7B1E8E169F06A9F791
:10065000689415F876946794579447941694D1F754
:100660004AE0BE01665D7F4FC2010E944006CE0196
:100670008A960E94230281E0F81250C0B50180E002
:1006800090E00E943F05AB01BC0180E091E00E9438
:10069000DF0180E091E00E94360180E091E00E945D
:1006A000E501362E272ECA5BDE4F8883C654D14023
:1006B000C95BDE4F9883C754D14020E030E44CE959
:1006C00056E40E942B0420E030E040E650E40E9413
:1006D000CD0520E038EB48E857E40E942A040E9448
:1006E00009056B017C016037E1E17E07E1E08E07DF
:1006F00091052CF561397E4E8E4F9F4F4CF50F2E94
:10070000F0E9CF2EF02D0F2EFEEEDF2EF02D0F2E66
:10071000FEEFEF2EF02DFF24FA941AC0312C212C7D
:10072000CA5BDE4F1882C654D140C95BDE4F1882C7
:10073000C754D140C12CD12CE12CF12C09C00F2E73
:10074000F0E7CF2EF1E1DF2EEE24E394F12CF02D33
:10075000632D722DCA5BDE4F8881C654D140C95BC0
:10076000DE4F9881C754D1400E940905DC01CB01BE
:100770004AE0BE016E5F7F4F0E944006CE010296A6
:100780000E942302CE0101960E942E01BE016E5FDF
:100790007F4FCE0101960E94EE004AE0BE016A5EE4
:1007A0007F4FC5010E944006CE0146960E9423025B
:1007B000BE01665D7F4FCE0146960E943702CE0194
:1007C00001960E943201BE016A5E7F4FCE01019602
:1007D0000E94EE003A9A429860E771E181E090E071
:1007E0006C197D098E099F090E94EB013A9A429A81
:1007F000C701B60160597E4E8E4F9F4F0E94EB019C
:10080000FF24F394CACEE0E0F1E087E399E8A1E8A1
:10081000BEE3848B958BA68BB78B80E090E0A8EC31
:10082000B3E4808F918FA28FB38F80E090E0A8E433
:10083000B2E4848F958FA68FB78F10A211A212A257
:1008400013A280E090E0A1E1B4E480A791A7A2A761
:10085000B3A708955058BB27AA270E9442040C94BE
:1008600093050E94850538F00E948C0520F039F42C
:100870009F3F19F426F40C9482050EF4E095E7FBF3
:100880000C947C05E92F0E94A40558F3BA1762075F
:1008900073078407950720F079F4A6F50C94C60534
:1008A0000EF4E0950B2EBA2FA02D0B01B90190018B
:1008B0000C01CA01A0011124FF27591B99F0593FCF
:1008C00050F4503E68F11A16F040A22F232F342F17
:1008D0004427585FF3CF469537952795A795F04065
:1008E0005395C9F77EF41F16BA0B620B730B840B7A
:1008F000BAF09150A1F0FF0FBB1F661F771F881F32
:10090000C2F70EC0BA0F621F731F841F48F4879589
:1009100077956795B795F7959E3F08F0B0CF93957B
:10092000880F08F09927EE0F9795879508950E94F4
:10093000AB040C9493050E948C0558F00E94850529
:1009400040F029F45F3F29F00C947C0551110C9480
:10095000C7050C9482050E94A40568F39923B1F39E
:10096000552391F3951B550BBB27AA2762177307D5
:10097000840738F09F5F5F4F220F331F441FAA1F69
:10098000A9F335D00E2E3AF0E0E832D09150504025
:10099000E695001CCAF72BD0FE2F29D0660F771FD3
:1009A000881FBB1F261737074807AB07B0E809F0B9
:1009B000BB0B802DBF01FF2793585F4F3AF09E3F3E
:1009C000510578F00C947C050C94C7055F3FE4F367
:1009D000983ED4F3869577956795B795F7959F5F81
:1009E000C9F7880F911D9695879597F90895E1E0CD
:1009F000660F771F881FBB1F621773078407BA072C
:100A000020F0621B730B840BBA0BEE1F88F7E09586
:100A100008950E9410056894B1110C94C7050895BB
:100A20000E94AC0588F09F5798F0B92F9927B751CD
:100A3000B0F0E1F0660F771F881F991F1AF0BA9582
:100A4000C9F714C0B13091F00E94C605B1E0089515
:100A50000C94C605672F782F8827B85F39F0B93F07
:100A6000CCF3869577956795B395D9F73EF4909535
:100A70008095709561957F4F8F4F9F4F0895E894B3
:100A800009C097FB3EF490958095709561957F4FD6
:100A90008F4F9F4F9923A9F0F92F96E9BB27939584
:100AA000F695879577956795B795F111F8CFFAF494
:100AB000BB0F11F460FF1BC06F5F7F4F8F4F9F4FC5
:100AC00016C0882311F096E911C0772321F09EE823
:100AD000872F762F05C0662371F096E8862F70E089
:100AE00060E02AF09A95660F771F881FDAF7880F63
:100AF0009695879597F9089597F99F6780E870E034
:100B000060E008959FEF80EC089500240A94161683
:100B1000170618060906089500240A9412161306EB
:100B2000140605060895092E0394000C11F4882379
:100B300052F0BB0F40F4BF2B11F460FF04C06F5F95
:100B40007F4F8F4F9F4F089557FD9058440F551F6B
:100B500059F05F3F71F04795880F97FB991F61F03F
:100B60009F3F79F087950895121613061406551FB6
:100B7000F2CF4695F1DF08C0161617061806991F22
:100B8000F1CF86957105610508940895E894BB2717
:100B900066277727CB0197F908950E94E0050C940A
:100BA00093050E94850538F00E948C0520F095235E
:100BB00011F00C947C050C94820511240C94C7054B
:100BC0000E94A40570F3959FC1F3950F50E0551F47
:100BD000629FF001729FBB27F00DB11D639FAA2792
:100BE000F00DB11DAA1F649F6627B00DA11D661FE1
:100BF000829F2227B00DA11D621F739FB00DA11D02
:100C0000621F839FA00D611D221F749F3327A00DBB
:100C1000611D231F849F600D211D822F762F6A2F57
:100C200011249F5750409AF0F1F088234AF0EE0FBC
:100C3000FF1FBB1F661F771F881F91505040A9F7E9
:100C40009E3F510580F00C947C050C94C7055F3FD6
:100C5000E4F3983ED4F3869577956795B795F79525
:100C6000E7959F5FC1F7FE2B880F911D969587959D
:100C700097F90895EE0FFF1F0590F491E02D099468
:100C8000BB274A3031F4992322F4BDE29095819537
:100C90009F4F0C944C06BB27FB015527AA27880FB2
:100CA000991FAA1FA41710F0A41B83955051B9F7E0
:100CB000A05DAA3308F0A95DA193009779F7B1115F
:100CC000B1931192CB010C946506DC01FC01672FF6
:100CD00071917723E1F7329704C07C916D93708313
:0E0CE0006291AE17BF07C8F30895F894FFCFD6
:00000001FF
