S01100004C75746F776E6963612E737265635D
S11300000C9435000C9452000C9452000C94520041
S11300100C9452000C9452000C9452000C94520014
S11300200C9452000C9452000C9452000C94520004
S11300300C9452000C9452000C9452000C945200F4
S11300400C9452000C9452000C9452000C945200E4
S11300500C9452000C9452000C9452000C945200D4
S11300600C9452000C945200390311241FBECFEF9C
S1130070D8E0DEBFCDBF21E0A0E0B1E001C01D9219
S1130080AC32B207E1F710E0C5E3D0E004C0219739
S1130090FE010E946C05C433D107C9F70E943702E0
S11300A00C94A7050C940000CF93DF9300D0CDB738
S11300B0DEB77A83698389819A819C012150310951
S11300C03A832983892BB9F70F900F90DF91CF9151
S11300D008955A982BB12F712BB94BB150E2659FFB
S11300E090011124242B2BB966956695669525B14C
S11300F0207E25B965B95C9A6FEF70E00E945400C8
S11301005C9808955A9A2BB12F712BB94BB150E2D8
S1130110659F90011124242B2BB9669566956695ED
S113012025B1207E25B965B95C9A6FEF70E00E9415
S113013054005C985A980895CF93DF93EC018AB1E8
S11301408C618AB98BB1837E8BB98AB1806E8AB98E
S11301508BB18F718BB984B18F6184B985B1807E85
S113016085B985B1876085B95C9A6FEF7FEFCE0161
S11301700E9454005C9885B1897F85B98BB1806CED
S11301808BB95C9A6FEF7FE0CE010E9454005C98BB
S11301905C9A6FEF7FE0CE010E9454005C988BB1B3
S11301A08F738BB9289861E0CE010E94690062E0E8
S11301B0CE010E94690066E0CE010E9469006FE0F2
S11301C0CE010E94690064E1CE010E94690062E0F0
S11301D0CE010E946900DF91CF910895BF92CF9222
S11301E0DF92EF92FF920F931F93CF93DF937C01E3
S11301F08B01D4E10F2EF4E1BF2EF02D6801F8013C
S113020080818A3071F48B2D8D1B843150F4DD2371
S113021091F0C0E060E2C7010E948200CF5FDC136E
S1130220F9CF0F5F1F4FF6016081C7010E94820062
S1130230D15021F709C00F5F1F4FF6016081C7013C
S11302400E948200D150DACFDF91CF911F910F919C
S1130250FF90EF90DF90CF90BF90089560E80E94E8
S11302606900089568EA0E94690008954F925F92B8
S11302706F927F928F929F92AF92BF92CF92DF92B2
S1130280EF92FF92CF93DF9300D000D000D0CDB790
S1130290DEB79E838D83FC0124A135A146A157A11D
S11302A060A571A582A593A50E945C036B017C01E6
S11302B0ED81FE8160837183828393838488958832
S11302C0A688B788A50194010E94FF04ED81FE81F0
S11302D024853585468557850E945D032B013C01A5
S11302E0ED81FE81648775878687978724813581B0
S11302F046815781C701B6010E945C03A5019401A0
S11303000E94C9034B015C01ED81FE816087718706
S113031082879387208D318D428D538DC701B6011D
S11303200E94FF0469837A838B839C83ED81FE8121
S1130330248D358D468D578DC301B2010E94FF0473
S11303409B01AC0169817A818B819C810E945D0350
S11303502B013C01ED81FE8120A131A142A153A1D9
S1130360C501B4010E94FF049B01AC01C301B201A9
S11303700E945D03ED81FE81608B718B828B938B78
S1130380C482D582E682F78226960FB6F894DEBF41
S11303900FBECDBFDF91CF91FF90EF90DF90CF9054
S11303A0BF90AF909F908F907F906F905F904F9091
S11303B00895FC0140A751A762A773A70895FC0103
S11303C044A355A366A377A30895FC0160897189AA
S11303D0828993890895CF93DF9300D000D0CDB75D
S11303E0DEB769837A838B839C8389819A81AB810D
S11303F0BC81AC01BD0141505109610971094983B6
S11304005A836B837C83892B8A2B8B2B71F70F90F8
S11304100F900F900F90DF91CF9108958064809397
S11304207C00EAE7F0E0808180648083808186FD3F
S1130430FDCF209178008091790090E0982F882753
S1130440820F911D0895FC019C0121503F4FDF0153
S1130450819190ED980F9C3030F08D52823018F0DD
S11304608AE08C930895E217F30789F70895CF93F0
S1130470DF93CDB7DEB7E5970FB6F894DEBF0FBEB6
S1130480CDBFCE0101960E949C0061E0CE01019691
S11304900E94690062E0CE0101960E9469006CE04E
S11304A0CE0101960E94690087E880937A0085E076
S11304B080938100109285001092840040E050E8FF
S11304C062E274E480E091E00E94D901B12C0F2E25
S11304D0F0E74F2EF1E15F2E66246394712CF02D2A
S11304E00F2EF0E9AF2EF02D0F2EFEEE9F2EF02DE5
S11304F00F2EFEEF8F2EF02D33243A943A9A429821
S113050081E00E940E028D3B9240D0F781E00E9470
S11305100E02EB2DF0E0EE0FFF1F21E030E02C0F78
S11305203D1FE20FF31F92A781A7B39434E03B155C
S113053008F4B12C0AA51BA58CA59DA5080F191FAD
S11305408EA59FA5080F191F88A999A9080F191F1F
S11305501695079516950795B80180E090E00E94DE
S11305607104AB01BC0180E091E00E94DF0180E0F6
S113057091E00E94360180E091E00E94E5016AABBF
S11305807BAB8CAB9DAB20E030E44CE956E40E949D
S11305905D0320E030E040E650E40E94FF0420E0E8
S11305A038EB48E857E40E945C030E943B046B016B
S11305B07C0180E7C81681E1D80681E0E806F104F1
S11305C074F421E9C2162EEED2062EEFE2062FEFC6
S11305D0F2063CF4CA2CD92CE82CF32C02C073018B
S11305E062016AA97BA98CA99DA90E943B04DC0134
S11305F0CB014AE0BE016E5F7F4F0E947205CE01BF
S113060002960E942302CE0101960E942E01BE0191
S11306106E5F7F4FCE0101960E94EE004AE0BE015C
S11306206A5E7F4FC8010E947205CE0146960E9401
S11306302302CE0101960E943201BE016A5E7F4F01
S1130640CE0101960E94EE003A9A4298C301B2018B
S11306506C197D098E099F090E94EB013A9A429A0E
S1130660C701B60160597E4E8E4F9F4F0E94EB0129
S113067045CFE0E0F1E087E399E8A1E8BEE3848BAD
S1130680958BA68BB78B80E090E8A2E2B4E4808FD0
S1130690918FA28FB38F40E050E068E473E4448FFD
S11306A0558F668F778F10A211A212A213A280A772
S11306B091A7A2A7B3A708955058BB27AA270E94C1
S11306C074030C94C5040E94B70438F00E94BE045D
S11306D020F039F49F3F19F426F40C94B4040EF47A
S11306E0E095E7FB0C94AE04E92F0E94D60458F37E
S11306F0BA17620773078407950720F079F4A6F503
S11307000C94F8040EF4E0950B2EBA2FA02D0B01D7
S1130710B90190010C01CA01A0011124FF27591B42
S113072099F0593F50F4503E68F11A16F040A22F48
S1130730232F342F4427585FF3CF469537952795B9
S1130740A795F0405395C9F77EF41F16BA0B620BB8
S1130750730B840BBAF09150A1F0FF0FBB1F661FFF
S1130760771F881FC2F70EC0BA0F621F731F841F42
S113077048F4879577956795B795F7959E3F08F068
S1130780B0CF9395880F08F09927EE0F979587952A
S113079008950E94DD030C94C5040E94BE0458F021
S11307A00E94B70440F029F45F3F29F00C94AE0492
S11307B051110C94F9040C94B4040E94D60468F307
S11307C09923B1F3552391F3951B550BBB27AA2706
S11307D062177307840738F09F5F5F4F220F331F40
S11307E0441FAA1FA9F335D00E2E3AF0E0E832D008
S11307F091505040E695001CCAF72BD0FE2F29D00B
S1130800660F771F881FBB1F261737074807AB07DC
S1130810B0E809F0BB0B802DBF01FF2793585F4F51
S11308203AF09E3F510578F00C94AE040C94F90410
S11308305F3FE4F3983ED4F3869577956795B79533
S1130840F7959F5FC9F7880F911D9695879597F93E
S11308500895E1E0660F771F881FBB1F62177307B7
S11308608407BA0720F0621B730B840BBA0BEE1FCC
S113087088F7E09508950E9442046894B1110C949D
S1130880F90408950E94DE0488F09F5798F0B92F68
S11308909927B751B0F0E1F0660F771F881F991FB1
S11308A01AF0BA95C9F714C0B13091F00E94F80457
S11308B0B1E008950C94F804672F782F8827B85F67
S11308C039F0B93FCCF3869577956795B395D9F709
S11308D03EF490958095709561957F4F8F4F9F4F13
S11308E00895E89409C097FB3EF49095809570951F
S11308F061957F4F8F4F9F4F9923A9F0F92F96E968
S1130900BB279395F695879577956795B795F111DC
S1130910F8CFFAF4BB0F11F460FF1BC06F5F7F4F79
S11309208F4F9F4F16C0882311F096E911C077238B
S113093021F09EE8872F762F05C0662371F096E894
S1130940862F70E060E02AF09A95660F771F881F63
S1130950DAF7880F9695879597F9089597F99F6721
S113096080E870E060E008959FEF80EC0895002433
S11309700A941616170618060906089500240A9400
S113098012161306140605060895092E0394000C86
S113099011F4882352F0BB0F40F4BF2B11F460FF15
S11309A004C06F5F7F4F8F4F9F4F089557FD90583E
S11309B0440F551F59F05F3F71F04795880F97FB1F
S11309C0991F61F09F3F79F08795089512161306D9
S11309D01406551FF2CF4695F1DF08C01616170608
S11309E01806991FF1CF869571056105089408953D
S11309F0E894BB2766277727CB0197F908950E94CF
S1130A0012050C94C5040E94B70438F00E94BE0479
S1130A1020F0952311F00C94AE040C94B40411242A
S1130A200C94F9040E94D60470F3959FC1F3950FBA
S1130A3050E0551F629FF001729FBB27F00DB11D5E
S1130A40639FAA27F00DB11DAA1F649F6627B00DEE
S1130A50A11D661F829F2227B00DA11D621F739FD7
S1130A60B00DA11D621F839FA00D611D221F749FE5
S1130A703327A00D611D231F849F600D211D822F2C
S1130A80762F6A2F11249F5750409AF0F1F0882353
S1130A904AF0EE0FFF1FBB1F661F771F881F915080
S1130AA05040A9F79E3F510580F00C94AE040C947D
S1130AB0F9045F3FE4F3983ED4F386957795679500
S1130AC0B795F795E7959F5FC1F7FE2B880F911DAA
S1130AD09695879597F90895EE0FFF1F0590F49169
S1130AE0E02D0994BB274A3031F4992322F4BDE266
S1130AF0909581959F4F0C947E05BB27FB0155274C
S1130B00AA27880F991FAA1FA41710F0A41B839566
S1130B105051B9F7A05DAA3308F0A95DA1930097DD
S1130B2079F7B111B1931192CB010C949705DC01C3
S1130B30FC01672F71917723E1F7329704C07C9110
S1130B406D9370836291AE17BF07C8F30895F8944C
S1050B50FFCFD1
S9030000FC
