S01100004C75746F776E6963612E737265635D
S11300000C9435000C945D000C945D000C945D0020
S11300100C945D000C945D000C945D000C945D00E8
S11300200C945D000C945D000C945D000C945D00D8
S11300300C945D000C9454020C945D000C945D00CF
S11300400C945D000C945D000C945D000C945D00B8
S11300500C945D000C945D000C945D000C945D00A8
S11300600C945D000C945D00060511241FBECFEFB7
S1130070D8E0DEBFCDBF11E0A0E0B1E0EAE6FFE0EA
S113008002C005900D92AC30B107D9F721E0ACE085
S1130090B1E001C01D92A836B207E1F710E0C5E354
S11300A0D0E004C02197FE010E947807C433D10731
S11300B0C9F70E9443040C94B3070C940000CF9337
S11300C0DF9300D0CDB7DEB77A83698389819A81C3
S11300D09C01215031093A832983892BB9F70F9068
S11300E00F90DF91CF9108955A982BB12F712BB9AE
S11300F04BB150E2659F90011124242B2BB96695D6
S11301006695669525B1207E25B965B95C9A6FEF31
S113011070E00E945F005C9808955A9A2BB12F7189
S11301202BB94BB150E2659F90011124242B2BB9BC
S113013066956695669525B1207E25B965B95C9A64
S11301406FEF70E00E945F005C985A980895CF9317
S1130150DF93EC018AB18C618AB98BB1837E8BB950
S11301608AB1806E8AB98BB18F718BB984B18F617A
S113017084B985B1807E85B985B1876085B95C9A7B
S11301806FEF7FEFCE010E945F005C9885B1897F9D
S113019085B98BB1806C8BB95C9A6FEF7FE0CE012F
S11301A00E945F005C985C9A6FEF7FE0CE010E9432
S11301B05F005C988BB18F738BB9289861E0CE0196
S11301C00E94740062E0CE010E94740066E0CE01D9
S11301D00E9474006FE0CE010E94740064E1CE01BD
S11301E00E94740062E0CE010E947400DF91CF91FE
S11301F00895BF92CF92DF92EF92FF920F931F93D5
S1130200CF93DF937C018B01D4E10F2EF4E1BF2E59
S1130210F02D6801F80180818A3071F48B2D8D1BDB
S1130220843150F4DD2391F0C0E060E2C7010E9404
S11302308D00CF5FDC13F9CF0F5F1F4FF601608194
S1130240C7010E948D00D15021F709C00F5F1F4FD5
S1130250F6016081C7010E948D00D150DACFDF9191
S1130260CF911F910F91FF90EF90DF90CF90BF90AF
S1130270089560E80E94740008953898409808959D
S11302800E943D0108954F925F926F927F928F92E8
S11302909F92AF92BF92CF92DF92EF92FF92CF9351
S11302A0DF9300D000D000D0CDB7DEB79E838D831E
S11302B0FC0124A135A146A157A160A571A582A581
S11302C093A50E942D056B017C01ED81FE81608365
S11302D071838283938384889588A688B788A501CF
S11302E094010E94F706ED81FE81248535854685BB
S11302F057850E942E052B013C01ED81FE81648708
S11303007587868797872481358146815781C70100
S1130310B6010E942D05A50194010E949F054B0181
S11303205C01ED81FE816087718782879387208DD0
S1130330318D428D538DC701B6010E94F706698342
S11303407A838B839C83ED81FE81248D358D468D4C
S1130350578DC301B2010E94F7069B01AC0169816C
S11303607A818B819C810E942E052B013C01ED81B9
S1130370FE8120A131A142A153A1C501B4010E9473
S1130380F7069B01AC01C301B2010E942E05ED8169
S1130390FE81608B718B828B938BC482D582E682C3
S11303A0F78226960FB6F894DEBF0FBECDBFDF915D
S11303B0CF91FF90EF90DF90CF90BF90AF909F9040
S11303C08F907F906F905F904F900895FC0144A3AD
S11303D055A366A377A30895FC0160897189828976
S11303E093890895FC01108211821282138214866B
S11303F01586168617861086118612861386148231
S1130400158216821782108A118A128A138A089515
S1130410CF93DF9300D000D0CDB7DEB769837A8362
S11304208B839C8389819A81AB81BC81AC01BD01A2
S1130430415051096109710949835A836B837C8353
S1130440892B8A2B8B2B71F70F900F900F900F90A5
S1130450DF91CF910895806480937C00EAE7F0E017
S1130460808180648083808186FDFDCF2091780027
S11304708091790090E0982F8827820F911D08952C
S1130480FC019C0121503F4FDF01819190ED980FB9
S11304909C3030F08D52823018F08AE08C930895AD
S11304A0E217F30789F708951F920F920FB60F9280
S11304B01124EF92FF920F931F932F933F934F9327
S11304C05F936F937F938F939F93AF93BF93CF93D8
S11304D0DF93EF93FF9381E08093220180913B01AE
S11304E081115FC13A9A42983A9A42983A9A42984C
S11304F081E00E942B0283359340D0F76FEF70E0C8
S113050080E090E00E94080281E00E942B02CBE28E
S1130510D1E09983888381E00E942B029B838A83A4
S113052081E00E942B029D838C8381E00E942B0238
S11305309F838E8381E00E942B029987888781E0C4
S11305400E942B029B878A8781E00E942B029D8751
S11305508C8781E00E942B029F878E87E880F98038
S11305608A819B810C811D81AE81BF81E885F985DB
S11305706A857B854C855D852E853F858E0D9F1D07
S1130580800F911F8A0F9B1F8E0F9F1F860F971F2F
S1130590840F951F820F931F90932A018093290142
S11305A08091290190912A01969587959695879532
S11305B09695879590932A0180932901609129014A
S11305C070912A0180E090E00E944006AB01BC01DA
S11305D08CE391E00E94E6018CE391E00E944301E8
S11305E08CE391E00E94EC01609325017093260155
S11305F08093270190932801609125017091260131
S1130600809127019091280120E030E04AE757E4E7
S11306100E94F206181684F480E090E0AAE7B7E49A
S11306208093250190932601A0932701B09328017C
S11306308CE391E00E94F201609125017091260102
S1130640809127019091280120E030E04AE757EC9F
S11306500E949A05882384F480E090E0AAE7B7EC2E
S11306608093250190932601A0932701B09328013C
S11306708CE391E00E94F2016091250170912601C2
S1130680809127019091280120E030E0A9010E9487
S11306909A05811106C080E09AEF9093210180931E
S11306A0200160912501709126018091270190918C
S11306B0280120E030E0A9010E94F20618169CF4FB
S11306C06091250170912601809127019091280164
S11306D020E030E0A9010E942E050E9411067093CB
S11306E02101609320016091250170912601809180
S11306F027019091280120E030E0A9010E949A0589
S1130700882304F5609125017091260180912701C9
S11307109091280120E030E04AE757E40E942E053A
S11307202DEC3CEC4CEC5CEB0E94F70620E030E056
S113073048EC54E40E942E050E9411067093210196
S113074060932001809120019091210190932401D4
S113075080932301809120019091210181159A4F6A
S113076030F080E09AEF90932101809320018091F2
S11307702001909121010B9730F48AE090E090934E
S11307802101809320018091200190912101909377
S11307908500809384003A9A429881E080933B01DB
S11307A010C0209120013091210180E09AEF821B3A
S11307B0930B90938500809384003A9A429A109206
S11307C03B0110922201FF91EF91DF91CF91BF91F4
S11307D0AF919F918F917F916F915F914F913F91D5
S11307E02F911F910F91FF90EF900F900FBE0F90DC
S11307F01F901895CF93DF93EC0188818A30D1F153
S1130800FE01319691E021912A3021F09F5F9D3FB6
S1130810D1F730C0FB0180818A3039F49F3F81F4E5
S11308202FC021912A3039F4F9CFFB013196AB0165
S113083043505F4FF6CFE417F50799F7EFCF90E0F9
S1130840FE01E90FF11D8083FB0180818A30C1F034
S113085020E00BC0FB01E20FF11D8081DE01A90F36
S1130860B11D8C9330813A3059F02F5F9F5F9F3FC9
S113087089F706C0FB0180818A3009F390E0D5CF67
S1130880DF91CF910895CF93DF93CDB7DEB7EF9784
S11308900FB6F894DEBF0FBECDBFCE0101960E9405
S11308A0A70061E0CE0101960E94740062E0CE01CF
S11308B001960E9474006CE0CE0101960E947400BF
S11308C0CE0102960E94400187E880937A0083E07B
S11308D080938100109285001092840081E08093BF
S11308E06F00ECE0F1E080E291E01192E817F90783
S11308F0E1F781E08FAF3A9A42983A9A4298789415
S11309006894CC24C7F8DD24D1F80F2EF1E2EF2E41
S1130910F6E0FF2EF02D6894992495F88091220139
S11309208111FCCF8091230190912401A090230197
S1130930B09024010091290110912A01B6010E946E
S11309406407CB014AE0BE016D5F7F4F0E947E07C2
S1130950C501B7010E946407CB014AE0BE01655D91
S11309607F4F0E947E074AE0BE01695E7F4FC80147
S11309700E947E07CE0103960E944002CE018B9610
S11309800E944002CE0147960E9440028C818A3028
S113099021F48D838B818C839B828CA58A3021F4F6
S11309A08DA78BA58CA79BA660E071E0CE01039672
S11309B00E94FA03BE01655D7F4FCE0103960E943B
S11309C0FA0364E071E0CE0103960E94FA0367E043
S11309D071E0CE0147960E94FA03BE016D5F7F4F1E
S11309E0CE0147960E94FA03CE0101960E94390176
S11309F0BE01695E7F4FCE0101960E94F9006FEF40
S1130A007FEF80E090E00E94080288CFECE3F1E001
S1130A108FE195E8ABE6BEE3848B958BA68BB78B11
S1130A2080E090E0A8E4B2E4808F918FA28FB38F2E
S1130A3080E090E0A6E9B3E4848F958FA68FB78F0A
S1130A4010A211A212A213A280E090E8A4E5B4E4DB
S1130A5080A791A7A2A7B3A708955058BB27AA2798
S1130A600E9445050C94B8060E94AA0638F00E941C
S1130A70B10620F039F49F3F19F426F40C94A7062C
S1130A800EF4E095E7FB0C94A106E92F0E94C90639
S1130A9058F3BA17620773078407950720F079F4AF
S1130AA0A6F50C94EB060EF4E0950B2EBA2FA02DB0
S1130AB00B01B90190010C01CA01A0011124FF2707
S1130AC0591B99F0593F50F4503E68F11A16F04002
S1130AD0A22F232F342F4427585FF3CF4695379501
S1130AE02795A795F0405395C9F77EF41F16BA0BC6
S1130AF0620B730B840BBAF09150A1F0FF0FBB1F74
S1130B00661F771F881FC2F70EC0BA0F621F731FBC
S1130B10841F48F4879577956795B795F7959E3F19
S1130B2008F0B0CF9395880F08F09927EE0F9795AA
S1130B30879508950E947D0608F481E008950E9437
S1130B40B3050C94B8060E94B10658F00E94AA0698
S1130B5040F029F45F3F29F00C94A10651110C9444
S1130B60EC060C94A7060E94C90668F39923B1F316
S1130B70552391F3951B550BBB27AA2762177307BF
S1130B80840738F09F5F5F4F220F331F441FAA1F53
S1130B90A9F335D00E2E3AF0E0E832D0915050400F
S1130BA0E695001CCAF72BD0FE2F29D0660F771FBD
S1130BB0881FBB1F261737074807AB07B0E809F0A3
S1130BC0BB0B802DBF01FF2793585F4F3AF09E3F28
S1130BD0510578F00C94A1060C94EC065F3FE4F305
S1130BE0983ED4F3869577956795B795F7959F5F6B
S1130BF0C9F7880F911D9695879597F90895E1E0B7
S1130C00660F771F881FBB1F621773078407BA0715
S1130C1020F0621B730B840BBA0BEE1F88F7E09570
S1130C2008950E94D10688F09F5798F0B92F99270C
S1130C30B751B0F0E1F0660F771F881F991F1AF0C3
S1130C40BA95C9F714C0B13091F00E94EB06B1E037
S1130C5008950C94EB06672F782F8827B85F39F036
S1130C60B93FCCF3869577956795B395D9F73EF45C
S1130C7090958095709561957F4F8F4F9F4F089504
S1130C80E89409C097FB3EF4909580957095619522
S1130C907F4F8F4F9F4F9923A9F0F92F96E9BB27D8
S1130CA09395F695879577956795B795F111F8CF54
S1130CB0FAF4BB0F11F460FF1BC06F5F7F4F8F4FBF
S1130CC09F4F16C0882311F096E911C0772321F0B5
S1130CD09EE8872F762F05C0662371F096E8862F4D
S1130CE070E060E02AF09A95660F771F881FDAF7A4
S1130CF0880F9695879597F90895990F0008550FD1
S1130D00AA0BE0E8FEEF16161706E807F907C0F08D
S1130D1012161306E407F50798F0621B730B840B95
S1130D20950B39F40A2661F0232B242B252B21F46F
S1130D3008950A2609F4A140A6958FEF811D811D0F
S1130D40089597F99F6780E870E060E008959FEF49
S1130D5080EC089500240A9416161706180609064E
S1130D60089500240A94121613061406050608951D
S1130D70092E0394000C11F4882352F0BB0F40F4A5
S1130D80BF2B11F460FF04C06F5F7F4F8F4F9F4FE5
S1130D90089557FD9058440F551F59F05F3F71F067
S1130DA04795880F97FB991F61F09F3F79F08795CE
S1130DB00895121613061406551FF2CF4695F1DF57
S1130DC008C0161617061806991FF1CF86957105E7
S1130DD0610508940895E894BB2766277727CB011B
S1130DE097F908950E947D0608F48FEF08950E94F4
S1130DF00A070C94B8060E94AA0638F00E94B106AD
S1130E0020F0952311F00C94A1060C94A70611244C
S1130E100C94EC060E94C90670F3959FC1F3950FDC
S1130E2050E0551F629FF001729FBB27F00DB11D6A
S1130E30639FAA27F00DB11DAA1F649F6627B00DFA
S1130E40A11D661F829F2227B00DA11D621F739FE3
S1130E50B00DA11D621F839FA00D611D221F749FF1
S1130E603327A00D611D231F849F600D211D822F38
S1130E70762F6A2F11249F5750409AF0F1F088235F
S1130E804AF0EE0FFF1FBB1F661F771F881F91508C
S1130E905040A9F79E3F510580F00C94A1060C9494
S1130EA0EC065F3FE4F3983ED4F386957795679517
S1130EB0B795F795E7959F5FC1F7FE2B880F911DB6
S1130EC09695879597F90895AA1BBB1B51E107C016
S1130ED0AA1FBB1FA617B70710F0A61BB70B881FC6
S1130EE0991F5A95A9F780959095BC01CD01089555
S1130EF0EE0FFF1F0590F491E02D0994BB274A30B3
S1130F0031F4992322F4BDE2909581959F4F0C947E
S1130F108A07BB27FB015527AA27880F991FAA1FF9
S1130F20A41710F0A41B83955051B9F7A05DAA3300
S1130F3008F0A95DA193009779F7B111B1931192CB
S1130F40CB010C94A307DC01FC01672F719177237B
S1130F50E1F7329704C07C916D9370836291AE1770
S10D0F60BF07C8F30895F894FFCF0B
S10F0F6A25200A00570A002743200A0033
S9030000FC
